{
  "contractName": "BookStore",
  "abi": [
    {
      "inputs": [],
      "stateMutability": "nonpayable",
      "type": "constructor"
    },
    {
      "anonymous": false,
      "inputs": [
        {
          "indexed": true,
          "internalType": "address",
          "name": "account",
          "type": "address"
        },
        {
          "indexed": true,
          "internalType": "address",
          "name": "operator",
          "type": "address"
        },
        {
          "indexed": false,
          "internalType": "bool",
          "name": "approved",
          "type": "bool"
        }
      ],
      "name": "ApprovalForAll",
      "type": "event"
    },
    {
      "anonymous": false,
      "inputs": [
        {
          "indexed": true,
          "internalType": "address",
          "name": "operator",
          "type": "address"
        },
        {
          "indexed": true,
          "internalType": "address",
          "name": "from",
          "type": "address"
        },
        {
          "indexed": true,
          "internalType": "address",
          "name": "to",
          "type": "address"
        },
        {
          "indexed": false,
          "internalType": "uint256[]",
          "name": "ids",
          "type": "uint256[]"
        },
        {
          "indexed": false,
          "internalType": "uint256[]",
          "name": "values",
          "type": "uint256[]"
        }
      ],
      "name": "TransferBatch",
      "type": "event"
    },
    {
      "anonymous": false,
      "inputs": [
        {
          "indexed": true,
          "internalType": "address",
          "name": "operator",
          "type": "address"
        },
        {
          "indexed": true,
          "internalType": "address",
          "name": "from",
          "type": "address"
        },
        {
          "indexed": true,
          "internalType": "address",
          "name": "to",
          "type": "address"
        },
        {
          "indexed": false,
          "internalType": "uint256",
          "name": "id",
          "type": "uint256"
        },
        {
          "indexed": false,
          "internalType": "uint256",
          "name": "value",
          "type": "uint256"
        }
      ],
      "name": "TransferSingle",
      "type": "event"
    },
    {
      "anonymous": false,
      "inputs": [
        {
          "indexed": false,
          "internalType": "string",
          "name": "value",
          "type": "string"
        },
        {
          "indexed": true,
          "internalType": "uint256",
          "name": "id",
          "type": "uint256"
        }
      ],
      "name": "URI",
      "type": "event"
    },
    {
      "inputs": [
        {
          "internalType": "address",
          "name": "account",
          "type": "address"
        },
        {
          "internalType": "uint256",
          "name": "id",
          "type": "uint256"
        }
      ],
      "name": "balanceOf",
      "outputs": [
        {
          "internalType": "uint256",
          "name": "",
          "type": "uint256"
        }
      ],
      "stateMutability": "view",
      "type": "function"
    },
    {
      "inputs": [
        {
          "internalType": "address[]",
          "name": "accounts",
          "type": "address[]"
        },
        {
          "internalType": "uint256[]",
          "name": "ids",
          "type": "uint256[]"
        }
      ],
      "name": "balanceOfBatch",
      "outputs": [
        {
          "internalType": "uint256[]",
          "name": "",
          "type": "uint256[]"
        }
      ],
      "stateMutability": "view",
      "type": "function"
    },
    {
      "inputs": [
        {
          "internalType": "address",
          "name": "account",
          "type": "address"
        },
        {
          "internalType": "address",
          "name": "operator",
          "type": "address"
        }
      ],
      "name": "isApprovedForAll",
      "outputs": [
        {
          "internalType": "bool",
          "name": "",
          "type": "bool"
        }
      ],
      "stateMutability": "view",
      "type": "function"
    },
    {
      "inputs": [
        {
          "internalType": "address",
          "name": "from",
          "type": "address"
        },
        {
          "internalType": "address",
          "name": "to",
          "type": "address"
        },
        {
          "internalType": "uint256[]",
          "name": "ids",
          "type": "uint256[]"
        },
        {
          "internalType": "uint256[]",
          "name": "amounts",
          "type": "uint256[]"
        },
        {
          "internalType": "bytes",
          "name": "data",
          "type": "bytes"
        }
      ],
      "name": "safeBatchTransferFrom",
      "outputs": [],
      "stateMutability": "nonpayable",
      "type": "function"
    },
    {
      "inputs": [
        {
          "internalType": "address",
          "name": "from",
          "type": "address"
        },
        {
          "internalType": "address",
          "name": "to",
          "type": "address"
        },
        {
          "internalType": "uint256",
          "name": "id",
          "type": "uint256"
        },
        {
          "internalType": "uint256",
          "name": "amount",
          "type": "uint256"
        },
        {
          "internalType": "bytes",
          "name": "data",
          "type": "bytes"
        }
      ],
      "name": "safeTransferFrom",
      "outputs": [],
      "stateMutability": "nonpayable",
      "type": "function"
    },
    {
      "inputs": [
        {
          "internalType": "address",
          "name": "operator",
          "type": "address"
        },
        {
          "internalType": "bool",
          "name": "approved",
          "type": "bool"
        }
      ],
      "name": "setApprovalForAll",
      "outputs": [],
      "stateMutability": "nonpayable",
      "type": "function"
    },
    {
      "inputs": [
        {
          "internalType": "bytes4",
          "name": "interfaceId",
          "type": "bytes4"
        }
      ],
      "name": "supportsInterface",
      "outputs": [
        {
          "internalType": "bool",
          "name": "",
          "type": "bool"
        }
      ],
      "stateMutability": "view",
      "type": "function"
    },
    {
      "inputs": [
        {
          "internalType": "uint256",
          "name": "",
          "type": "uint256"
        }
      ],
      "name": "uri",
      "outputs": [
        {
          "internalType": "string",
          "name": "",
          "type": "string"
        }
      ],
      "stateMutability": "view",
      "type": "function"
    },
    {
      "inputs": [
        {
          "internalType": "uint256",
          "name": "_quantity",
          "type": "uint256"
        },
        {
          "internalType": "uint256",
          "name": "_price",
          "type": "uint256"
        },
        {
          "internalType": "address",
          "name": "_currency",
          "type": "address"
        }
      ],
      "name": "publish",
      "outputs": [],
      "stateMutability": "nonpayable",
      "type": "function"
    },
    {
      "inputs": [
        {
          "internalType": "uint256",
          "name": "_bookVersionId",
          "type": "uint256"
        }
      ],
      "name": "bookVersionPrice",
      "outputs": [
        {
          "internalType": "uint256",
          "name": "",
          "type": "uint256"
        }
      ],
      "stateMutability": "view",
      "type": "function"
    },
    {
      "inputs": [
        {
          "internalType": "uint256",
          "name": "_bookVersionId",
          "type": "uint256"
        }
      ],
      "name": "bookVersionCurrency",
      "outputs": [
        {
          "internalType": "address",
          "name": "",
          "type": "address"
        }
      ],
      "stateMutability": "view",
      "type": "function"
    }
  ],
  "bytecode": "0x60806040523480156200001157600080fd5b50604051806060016040528060218152602001620018be60219139620000378162000043565b5060016003556200013f565b8051620000589060029060208401906200005c565b5050565b8280546200006a9062000102565b90600052602060002090601f0160209004810192826200008e5760008555620000d9565b82601f10620000a957805160ff1916838001178555620000d9565b82800160010185558215620000d9579182015b82811115620000d9578251825591602001919060010190620000bc565b50620000e7929150620000eb565b5090565b5b80821115620000e75760008155600101620000ec565b6002810460018216806200011757607f821691505b602082108114156200013957634e487b7160e01b600052602260045260246000fd5b50919050565b61176f806200014f6000396000f3fe608060405234801561001057600080fd5b50600436106100b85760003560e01c80634e1273f411610081578063d05aa68b1161005b578063d05aa68b146101a1578063e985e9c5146101b4578063f242432a146101c7576100b8565b80634e1273f41461015b57806398e693751461017b578063a22cb4651461018e576100b8565b8062fdd58e146100bd57806301ffc9a7146100e65780630e89341c146101065780632cdf2b31146101265780632eb2c2d614610146575b600080fd5b6100d06100cb366004610f2b565b6101da565b6040516100dd9190611576565b60405180910390f35b6100f96100f4366004611012565b610231565b6040516100dd9190611218565b610119610114366004611051565b610279565b6040516100dd9190611223565b610139610134366004611051565b61030d565b6040516100dd9190611122565b610159610154366004610de8565b610328565b005b61016e610169366004610f54565b610386565b6040516100dd91906111d7565b610159610189366004611069565b6104a6565b61015961019c366004610ef1565b610528565b6100d06101af366004611051565b61053e565b6100f96101c2366004610db6565b610550565b6101596101d5366004610e8e565b61057e565b60006001600160a01b03831661020b5760405162461bcd60e51b8152600401610202906112db565b60405180910390fd5b506000908152602081815260408083206001600160a01b03949094168352929052205490565b60006001600160e01b03198216636cdb3d1360e11b148061026257506001600160e01b031982166303a24d0760e21b145b806102715750610271826105d5565b90505b919050565b606060028054610288906115f3565b80601f01602080910402602001604051908101604052809291908181526020018280546102b4906115f3565b80156103015780601f106102d657610100808354040283529160200191610301565b820191906000526020600020905b8154815290600101906020018083116102e457829003601f168201915b50505050509050919050565b6000908152600560205260409020546001600160a01b031690565b6103306105ee565b6001600160a01b0316856001600160a01b031614806103565750610356856101c26105ee565b6103725760405162461bcd60e51b8152600401610202906113b4565b61037f85858585856105f3565b5050505050565b606081518351146103a95760405162461bcd60e51b8152600401610202906114a4565b6000835167ffffffffffffffff8111156103d357634e487b7160e01b600052604160045260246000fd5b6040519080825280602002602001820160405280156103fc578160200160208202803683370190505b50905060005b845181101561049e5761046385828151811061042e57634e487b7160e01b600052603260045260246000fd5b602002602001015185838151811061045657634e487b7160e01b600052603260045260246000fd5b60200260200101516101da565b82828151811061048357634e487b7160e01b600052603260045260246000fd5b60209081029190910101526104978161162e565b9050610402565b509392505050565b6104c33360035485604051806020016040528060008152506107c4565b6003805460009081526004602090815260408083208690558354835260059091528120805473ffffffffffffffffffffffffffffffffffffffff19166001600160a01b0385161790558154600192919061051e9084906115db565b9091555050505050565b61053a6105336105ee565b83836108b3565b5050565b60009081526004602052604090205490565b6001600160a01b03918216600090815260016020908152604080832093909416825291909152205460ff1690565b6105866105ee565b6001600160a01b0316856001600160a01b031614806105ac57506105ac856101c26105ee565b6105c85760405162461bcd60e51b815260040161020290611326565b61037f8585858585610956565b6001600160e01b031981166301ffc9a760e01b14919050565b335b90565b81518351146106145760405162461bcd60e51b8152600401610202906114ed565b6001600160a01b03841661063a5760405162461bcd60e51b81526004016102029061136f565b60006106446105ee565b90506106548187878787876107bc565b60005b845181101561075657600085828151811061068257634e487b7160e01b600052603260045260246000fd5b6020026020010151905060008583815181106106ae57634e487b7160e01b600052603260045260246000fd5b602090810291909101810151600084815280835260408082206001600160a01b038e1683529093529190912054909150818110156106fe5760405162461bcd60e51b815260040161020290611411565b6000838152602081815260408083206001600160a01b038e8116855292528083208585039055908b1682528120805484929061073b9084906115db565b925050819055505050508061074f9061162e565b9050610657565b50846001600160a01b0316866001600160a01b0316826001600160a01b03167f4a39dc06d4c0dbc64b70af90fd698a233a518aa5d07e595d983b8c0526c8f7fb87876040516107a69291906111ea565b60405180910390a46107bc818787878787610a8a565b505050505050565b6001600160a01b0384166107ea5760405162461bcd60e51b815260040161020290611535565b60006107f46105ee565b90506108158160008761080688610b98565b61080f88610b98565b876107bc565b6000848152602081815260408083206001600160a01b0389168452909152812080548592906108459084906115db565b92505081905550846001600160a01b031660006001600160a01b0316826001600160a01b03167fc3d58168c5ae7397731d063d5bbf3d657854427343f4c083240f7aacaa2d0f62878760405161089c92919061157f565b60405180910390a461037f81600087878787610bf1565b816001600160a01b0316836001600160a01b031614156108e55760405162461bcd60e51b81526004016102029061145b565b6001600160a01b0383811660008181526001602090815260408083209487168084529490915290819020805460ff1916851515179055517f17307eab39ab6107e8899845ad3d59bd9653f200f220920489ca2b5937696c3190610949908590611218565b60405180910390a3505050565b6001600160a01b03841661097c5760405162461bcd60e51b81526004016102029061136f565b60006109866105ee565b905061099781878761080688610b98565b6000848152602081815260408083206001600160a01b038a168452909152902054838110156109d85760405162461bcd60e51b815260040161020290611411565b6000858152602081815260408083206001600160a01b038b8116855292528083208785039055908816825281208054869290610a159084906115db565b92505081905550856001600160a01b0316876001600160a01b0316836001600160a01b03167fc3d58168c5ae7397731d063d5bbf3d657854427343f4c083240f7aacaa2d0f628888604051610a6b92919061157f565b60405180910390a4610a81828888888888610bf1565b50505050505050565b610a9c846001600160a01b0316610cc2565b156107bc5760405163bc197c8160e01b81526001600160a01b0385169063bc197c8190610ad59089908990889088908890600401611136565b602060405180830381600087803b158015610aef57600080fd5b505af1925050508015610b1f575060408051601f3d908101601f19168201909252610b1c91810190611035565b60015b610b6857610b2b61167b565b80610b365750610b50565b8060405162461bcd60e51b81526004016102029190611223565b60405162461bcd60e51b815260040161020290611236565b6001600160e01b0319811663bc197c8160e01b14610a815760405162461bcd60e51b815260040161020290611293565b60408051600180825281830190925260609160009190602080830190803683370190505090508281600081518110610be057634e487b7160e01b600052603260045260246000fd5b602090810291909101015292915050565b610c03846001600160a01b0316610cc2565b156107bc5760405163f23a6e6160e01b81526001600160a01b0385169063f23a6e6190610c3c9089908990889088908890600401611194565b602060405180830381600087803b158015610c5657600080fd5b505af1925050508015610c86575060408051601f3d908101601f19168201909252610c8391810190611035565b60015b610c9257610b2b61167b565b6001600160e01b0319811663f23a6e6160e01b14610a815760405162461bcd60e51b815260040161020290611293565b3b151590565b80356001600160a01b038116811461027457600080fd5b600082601f830112610cef578081fd5b81356020610d04610cff836115b7565b61158d565b8281528181019085830183850287018401881015610d20578586fd5b855b85811015610d3e57813584529284019290840190600101610d22565b5090979650505050505050565b600082601f830112610d5b578081fd5b813567ffffffffffffffff811115610d7557610d7561165f565b610d88601f8201601f191660200161158d565b818152846020838601011115610d9c578283fd5b816020850160208301379081016020019190915292915050565b60008060408385031215610dc8578182fd5b610dd183610cc8565b9150610ddf60208401610cc8565b90509250929050565b600080600080600060a08688031215610dff578081fd5b610e0886610cc8565b9450610e1660208701610cc8565b9350604086013567ffffffffffffffff80821115610e32578283fd5b610e3e89838a01610cdf565b94506060880135915080821115610e53578283fd5b610e5f89838a01610cdf565b93506080880135915080821115610e74578283fd5b50610e8188828901610d4b565b9150509295509295909350565b600080600080600060a08688031215610ea5578081fd5b610eae86610cc8565b9450610ebc60208701610cc8565b93506040860135925060608601359150608086013567ffffffffffffffff811115610ee5578182fd5b610e8188828901610d4b565b60008060408385031215610f03578182fd5b610f0c83610cc8565b915060208301358015158114610f20578182fd5b809150509250929050565b60008060408385031215610f3d578182fd5b610f4683610cc8565b946020939093013593505050565b60008060408385031215610f66578182fd5b823567ffffffffffffffff80821115610f7d578384fd5b818501915085601f830112610f90578384fd5b81356020610fa0610cff836115b7565b82815281810190858301838502870184018b1015610fbc578889fd5b8896505b84871015610fe557610fd181610cc8565b835260019690960195918301918301610fc0565b5096505086013592505080821115610ffb578283fd5b5061100885828601610cdf565b9150509250929050565b600060208284031215611023578081fd5b813561102e81611720565b9392505050565b600060208284031215611046578081fd5b815161102e81611720565b600060208284031215611062578081fd5b5035919050565b60008060006060848603121561107d578283fd5b833592506020840135915061109460408501610cc8565b90509250925092565b6000815180845260208085019450808401835b838110156110cc578151875295820195908201906001016110b0565b509495945050505050565b60008151808452815b818110156110fc576020818501810151868301820152016110e0565b8181111561110d5782602083870101525b50601f01601f19169290920160200192915050565b6001600160a01b0391909116815260200190565b60006001600160a01b03808816835280871660208401525060a0604083015261116260a083018661109d565b8281036060840152611174818661109d565b9050828103608084015261118881856110d7565b98975050505050505050565b60006001600160a01b03808816835280871660208401525084604083015283606083015260a060808301526111cc60a08301846110d7565b979650505050505050565b60006020825261102e602083018461109d565b6000604082526111fd604083018561109d565b828103602084015261120f818561109d565b95945050505050565b901515815260200190565b60006020825261102e60208301846110d7565b60208082526034908201527f455243313135353a207472616e7366657220746f206e6f6e204552433131353560408201527f526563656976657220696d706c656d656e746572000000000000000000000000606082015260800190565b60208082526028908201527f455243313135353a204552433131353552656365697665722072656a656374656040820152676420746f6b656e7360c01b606082015260800190565b6020808252602b908201527f455243313135353a2062616c616e636520717565727920666f7220746865207a60408201526a65726f206164647265737360a81b606082015260800190565b60208082526029908201527f455243313135353a2063616c6c6572206973206e6f74206f776e6572206e6f7260408201526808185c1c1c9bdd995960ba1b606082015260800190565b60208082526025908201527f455243313135353a207472616e7366657220746f20746865207a65726f206164604082015264647265737360d81b606082015260800190565b60208082526032908201527f455243313135353a207472616e736665722063616c6c6572206973206e6f742060408201527f6f776e6572206e6f7220617070726f7665640000000000000000000000000000606082015260800190565b6020808252602a908201527f455243313135353a20696e73756666696369656e742062616c616e636520666f60408201526939103a3930b739b332b960b11b606082015260800190565b60208082526029908201527f455243313135353a2073657474696e6720617070726f76616c20737461747573604082015268103337b91039b2b63360b91b606082015260800190565b60208082526029908201527f455243313135353a206163636f756e747320616e6420696473206c656e677468604082015268040dad2e6dac2e8c6d60bb1b606082015260800190565b60208082526028908201527f455243313135353a2069647320616e6420616d6f756e7473206c656e677468206040820152670dad2e6dac2e8c6d60c31b606082015260800190565b60208082526021908201527f455243313135353a206d696e7420746f20746865207a65726f206164647265736040820152607360f81b606082015260800190565b90815260200190565b918252602082015260400190565b60405181810167ffffffffffffffff811182821017156115af576115af61165f565b604052919050565b600067ffffffffffffffff8211156115d1576115d161165f565b5060209081020190565b600082198211156115ee576115ee611649565b500190565b60028104600182168061160757607f821691505b6020821081141561162857634e487b7160e01b600052602260045260246000fd5b50919050565b600060001982141561164257611642611649565b5060010190565b634e487b7160e01b600052601160045260246000fd5b634e487b7160e01b600052604160045260246000fd5b60e01c90565b600060443d101561168b576105f0565b600481823e6308c379a061169f8251611675565b146116a9576105f0565b6040513d600319016004823e80513d67ffffffffffffffff81602484011181841117156116d957505050506105f0565b828401925082519150808211156116f357505050506105f0565b503d8301602082840101111561170b575050506105f0565b601f01601f1916810160200160405291505090565b6001600160e01b03198116811461173657600080fd5b5056fea2646970667358221220148847909d3daa8beeaf47057bd986ee86021bad8e973a155e79a696af450f3064736f6c6343000800003368747470733a2f2f6578616d706c652e636f6d2f6170692f7b69647d2e6a736f6e",
  "immutableReferences": {},
  "source": "// SPDX-License-Identifier: MIT\r\npragma solidity ^0.8.0;\r\n\r\nimport \"@openzeppelin/contracts/token/ERC1155/ERC1155.sol\";\r\n\r\ncontract BookStore is ERC1155 {\r\n\r\n  uint256 private _currentBookVersionId;\r\n\r\n  mapping (uint => uint) private _bookVersionPrices;\r\n  mapping (uint => address) private _bookVersionCurrencies;\r\n\r\n  constructor() ERC1155(\"https://example.com/api/{id}.json\") {\r\n    _currentBookVersionId = 1;\r\n  }\r\n\r\n  function publish(uint256 _quantity, uint256 _price, address _currency) public {\r\n    _mint(msg.sender, _currentBookVersionId, _quantity, \"\");\r\n    _bookVersionPrices[_currentBookVersionId] = _price;\r\n    _bookVersionCurrencies[_currentBookVersionId] = _currency;\r\n    _currentBookVersionId += 1;\r\n  }\r\n\r\n  function bookVersionPrice(uint256 _bookVersionId) public view returns (uint256) {\r\n    return _bookVersionPrices[_bookVersionId];\r\n  }\r\n\r\n  function bookVersionCurrency(uint256 _bookVersionId) public view returns (address) {\r\n    return _bookVersionCurrencies[_bookVersionId];\r\n  }\r\n}\r\n",
  "sourcePath": "C:\\Users\\Hp\\Documents\\Projects\\bookstore\\contracts\\BookStore.sol",
  "compiler": {
    "name": "solc",
    "version": "0.8.0+commit.c7dfd78e.Emscripten.clang"
  },
  "schemaVersion": "3.4.3",
  "updatedAt": "2021-12-30T06:52:12.144Z",
  "devdoc": {
    "kind": "dev",
    "methods": {
      "balanceOf(address,uint256)": {
        "details": "See {IERC1155-balanceOf}. Requirements: - `account` cannot be the zero address."
      },
      "balanceOfBatch(address[],uint256[])": {
        "details": "See {IERC1155-balanceOfBatch}. Requirements: - `accounts` and `ids` must have the same length."
      },
      "isApprovedForAll(address,address)": {
        "details": "See {IERC1155-isApprovedForAll}."
      },
      "safeBatchTransferFrom(address,address,uint256[],uint256[],bytes)": {
        "details": "See {IERC1155-safeBatchTransferFrom}."
      },
      "safeTransferFrom(address,address,uint256,uint256,bytes)": {
        "details": "See {IERC1155-safeTransferFrom}."
      },
      "setApprovalForAll(address,bool)": {
        "details": "See {IERC1155-setApprovalForAll}."
      },
      "supportsInterface(bytes4)": {
        "details": "See {IERC165-supportsInterface}."
      },
      "uri(uint256)": {
        "details": "See {IERC1155MetadataURI-uri}. This implementation returns the same URI for *all* token types. It relies on the token type ID substitution mechanism https://eips.ethereum.org/EIPS/eip-1155#metadata[defined in the EIP]. Clients calling this function must replace the `\\{id\\}` substring with the actual token type ID."
      }
    },
    "version": 1
  },
  "userdoc": {
    "kind": "user",
    "methods": {},
    "version": 1
  }
}