{
  "contractName": "BookStore",
  "abi": [
    {
      "inputs": [],
      "stateMutability": "nonpayable",
      "type": "constructor"
    },
    {
      "anonymous": false,
      "inputs": [
        {
          "indexed": true,
          "internalType": "address",
          "name": "account",
          "type": "address"
        },
        {
          "indexed": true,
          "internalType": "address",
          "name": "operator",
          "type": "address"
        },
        {
          "indexed": false,
          "internalType": "bool",
          "name": "approved",
          "type": "bool"
        }
      ],
      "name": "ApprovalForAll",
      "type": "event"
    },
    {
      "anonymous": false,
      "inputs": [
        {
          "indexed": true,
          "internalType": "address",
          "name": "operator",
          "type": "address"
        },
        {
          "indexed": true,
          "internalType": "address",
          "name": "from",
          "type": "address"
        },
        {
          "indexed": true,
          "internalType": "address",
          "name": "to",
          "type": "address"
        },
        {
          "indexed": false,
          "internalType": "uint256[]",
          "name": "ids",
          "type": "uint256[]"
        },
        {
          "indexed": false,
          "internalType": "uint256[]",
          "name": "values",
          "type": "uint256[]"
        }
      ],
      "name": "TransferBatch",
      "type": "event"
    },
    {
      "anonymous": false,
      "inputs": [
        {
          "indexed": true,
          "internalType": "address",
          "name": "operator",
          "type": "address"
        },
        {
          "indexed": true,
          "internalType": "address",
          "name": "from",
          "type": "address"
        },
        {
          "indexed": true,
          "internalType": "address",
          "name": "to",
          "type": "address"
        },
        {
          "indexed": false,
          "internalType": "uint256",
          "name": "id",
          "type": "uint256"
        },
        {
          "indexed": false,
          "internalType": "uint256",
          "name": "value",
          "type": "uint256"
        }
      ],
      "name": "TransferSingle",
      "type": "event"
    },
    {
      "anonymous": false,
      "inputs": [
        {
          "indexed": false,
          "internalType": "string",
          "name": "value",
          "type": "string"
        },
        {
          "indexed": true,
          "internalType": "uint256",
          "name": "id",
          "type": "uint256"
        }
      ],
      "name": "URI",
      "type": "event"
    },
    {
      "inputs": [
        {
          "internalType": "address",
          "name": "account",
          "type": "address"
        },
        {
          "internalType": "uint256",
          "name": "id",
          "type": "uint256"
        }
      ],
      "name": "balanceOf",
      "outputs": [
        {
          "internalType": "uint256",
          "name": "",
          "type": "uint256"
        }
      ],
      "stateMutability": "view",
      "type": "function"
    },
    {
      "inputs": [
        {
          "internalType": "address[]",
          "name": "accounts",
          "type": "address[]"
        },
        {
          "internalType": "uint256[]",
          "name": "ids",
          "type": "uint256[]"
        }
      ],
      "name": "balanceOfBatch",
      "outputs": [
        {
          "internalType": "uint256[]",
          "name": "",
          "type": "uint256[]"
        }
      ],
      "stateMutability": "view",
      "type": "function"
    },
    {
      "inputs": [
        {
          "internalType": "address",
          "name": "account",
          "type": "address"
        },
        {
          "internalType": "address",
          "name": "operator",
          "type": "address"
        }
      ],
      "name": "isApprovedForAll",
      "outputs": [
        {
          "internalType": "bool",
          "name": "",
          "type": "bool"
        }
      ],
      "stateMutability": "view",
      "type": "function"
    },
    {
      "inputs": [
        {
          "internalType": "address",
          "name": "from",
          "type": "address"
        },
        {
          "internalType": "address",
          "name": "to",
          "type": "address"
        },
        {
          "internalType": "uint256[]",
          "name": "ids",
          "type": "uint256[]"
        },
        {
          "internalType": "uint256[]",
          "name": "amounts",
          "type": "uint256[]"
        },
        {
          "internalType": "bytes",
          "name": "data",
          "type": "bytes"
        }
      ],
      "name": "safeBatchTransferFrom",
      "outputs": [],
      "stateMutability": "nonpayable",
      "type": "function"
    },
    {
      "inputs": [
        {
          "internalType": "address",
          "name": "from",
          "type": "address"
        },
        {
          "internalType": "address",
          "name": "to",
          "type": "address"
        },
        {
          "internalType": "uint256",
          "name": "id",
          "type": "uint256"
        },
        {
          "internalType": "uint256",
          "name": "amount",
          "type": "uint256"
        },
        {
          "internalType": "bytes",
          "name": "data",
          "type": "bytes"
        }
      ],
      "name": "safeTransferFrom",
      "outputs": [],
      "stateMutability": "nonpayable",
      "type": "function"
    },
    {
      "inputs": [
        {
          "internalType": "address",
          "name": "operator",
          "type": "address"
        },
        {
          "internalType": "bool",
          "name": "approved",
          "type": "bool"
        }
      ],
      "name": "setApprovalForAll",
      "outputs": [],
      "stateMutability": "nonpayable",
      "type": "function"
    },
    {
      "inputs": [
        {
          "internalType": "bytes4",
          "name": "interfaceId",
          "type": "bytes4"
        }
      ],
      "name": "supportsInterface",
      "outputs": [
        {
          "internalType": "bool",
          "name": "",
          "type": "bool"
        }
      ],
      "stateMutability": "view",
      "type": "function"
    },
    {
      "inputs": [
        {
          "internalType": "uint256",
          "name": "",
          "type": "uint256"
        }
      ],
      "name": "uri",
      "outputs": [
        {
          "internalType": "string",
          "name": "",
          "type": "string"
        }
      ],
      "stateMutability": "view",
      "type": "function"
    },
    {
      "inputs": [
        {
          "internalType": "uint256",
          "name": "_quantity",
          "type": "uint256"
        }
      ],
      "name": "publish",
      "outputs": [],
      "stateMutability": "nonpayable",
      "type": "function"
    }
  ],
  "bytecode": "0x60806040523480156200001157600080fd5b50604051806060016040528060218152602001620016486021913962000037816200003e565b506200013a565b80516200005390600290602084019062000057565b5050565b8280546200006590620000fd565b90600052602060002090601f016020900481019282620000895760008555620000d4565b82601f10620000a457805160ff1916838001178555620000d4565b82800160010185558215620000d4579182015b82811115620000d4578251825591602001919060010190620000b7565b50620000e2929150620000e6565b5090565b5b80821115620000e25760008155600101620000e7565b6002810460018216806200011257607f821691505b602082108114156200013457634e487b7160e01b600052602260045260246000fd5b50919050565b6114fe806200014a6000396000f3fe608060405234801561001057600080fd5b50600436106100925760003560e01c80634e1273f4116100665780634e1273f414610115578063a22cb46514610135578063cc4ef11914610148578063e985e9c51461015b578063f242432a1461016e57610092565b8062fdd58e1461009757806301ffc9a7146100c05780630e89341c146100e05780632eb2c2d614610100575b600080fd5b6100aa6100a5366004610d46565b610181565b6040516100b79190611308565b60405180910390f35b6100d36100ce366004610e2d565b6101d8565b6040516100b79190610feb565b6100f36100ee366004610e6c565b610220565b6040516100b79190610ff6565b61011361010e366004610c03565b6102b4565b005b610128610123366004610d6f565b610312565b6040516100b79190610faa565b610113610143366004610d0c565b610432565b610113610156366004610e6c565b610448565b6100d3610169366004610bd1565b61044b565b61011361017c366004610ca9565b610479565b60006001600160a01b0383166101b25760405162461bcd60e51b81526004016101a9906110ae565b60405180910390fd5b506000908152602081815260408083206001600160a01b03949094168352929052205490565b60006001600160e01b03198216636cdb3d1360e11b148061020957506001600160e01b031982166303a24d0760e21b145b806102185750610218826104d0565b90505b919050565b60606002805461022f90611385565b80601f016020809104026020016040519081016040528092919081815260200182805461025b90611385565b80156102a85780601f1061027d576101008083540402835291602001916102a8565b820191906000526020600020905b81548152906001019060200180831161028b57829003601f168201915b50505050509050919050565b6102bc6104e9565b6001600160a01b0316856001600160a01b031614806102e257506102e2856101696104e9565b6102fe5760405162461bcd60e51b81526004016101a990611187565b61030b85858585856104ee565b5050505050565b606081518351146103355760405162461bcd60e51b81526004016101a990611277565b6000835167ffffffffffffffff81111561035f57634e487b7160e01b600052604160045260246000fd5b604051908082528060200260200182016040528015610388578160200160208202803683370190505b50905060005b845181101561042a576103ef8582815181106103ba57634e487b7160e01b600052603260045260246000fd5b60200260200101518583815181106103e257634e487b7160e01b600052603260045260246000fd5b6020026020010151610181565b82828151811061040f57634e487b7160e01b600052603260045260246000fd5b6020908102919091010152610423816113c0565b905061038e565b509392505050565b61044461043d6104e9565b83836106bf565b5050565b50565b6001600160a01b03918216600090815260016020908152604080832093909416825291909152205460ff1690565b6104816104e9565b6001600160a01b0316856001600160a01b031614806104a757506104a7856101696104e9565b6104c35760405162461bcd60e51b81526004016101a9906110f9565b61030b8585858585610762565b6001600160e01b031981166301ffc9a760e01b14919050565b335b90565b815183511461050f5760405162461bcd60e51b81526004016101a9906112c0565b6001600160a01b0384166105355760405162461bcd60e51b81526004016101a990611142565b600061053f6104e9565b905061054f8187878787876106b7565b60005b845181101561065157600085828151811061057d57634e487b7160e01b600052603260045260246000fd5b6020026020010151905060008583815181106105a957634e487b7160e01b600052603260045260246000fd5b602090810291909101810151600084815280835260408082206001600160a01b038e1683529093529190912054909150818110156105f95760405162461bcd60e51b81526004016101a9906111e4565b6000838152602081815260408083206001600160a01b038e8116855292528083208585039055908b1682528120805484929061063690849061136d565b925050819055505050508061064a906113c0565b9050610552565b50846001600160a01b0316866001600160a01b0316826001600160a01b03167f4a39dc06d4c0dbc64b70af90fd698a233a518aa5d07e595d983b8c0526c8f7fb87876040516106a1929190610fbd565b60405180910390a46106b78187878787876108a5565b505050505050565b816001600160a01b0316836001600160a01b031614156106f15760405162461bcd60e51b81526004016101a99061122e565b6001600160a01b0383811660008181526001602090815260408083209487168084529490915290819020805460ff1916851515179055517f17307eab39ab6107e8899845ad3d59bd9653f200f220920489ca2b5937696c3190610755908590610feb565b60405180910390a3505050565b6001600160a01b0384166107885760405162461bcd60e51b81526004016101a990611142565b60006107926104e9565b90506107b28187876107a3886109b3565b6107ac886109b3565b876106b7565b6000848152602081815260408083206001600160a01b038a168452909152902054838110156107f35760405162461bcd60e51b81526004016101a9906111e4565b6000858152602081815260408083206001600160a01b038b811685529252808320878503905590881682528120805486929061083090849061136d565b92505081905550856001600160a01b0316876001600160a01b0316836001600160a01b03167fc3d58168c5ae7397731d063d5bbf3d657854427343f4c083240f7aacaa2d0f628888604051610886929190611311565b60405180910390a461089c828888888888610a0c565b50505050505050565b6108b7846001600160a01b0316610add565b156106b75760405163bc197c8160e01b81526001600160a01b0385169063bc197c81906108f09089908990889088908890600401610f09565b602060405180830381600087803b15801561090a57600080fd5b505af192505050801561093a575060408051601f3d908101601f1916820190925261093791810190610e50565b60015b6109835761094661140d565b80610951575061096b565b8060405162461bcd60e51b81526004016101a99190610ff6565b60405162461bcd60e51b81526004016101a990611009565b6001600160e01b0319811663bc197c8160e01b1461089c5760405162461bcd60e51b81526004016101a990611066565b604080516001808252818301909252606091600091906020808301908036833701905050905082816000815181106109fb57634e487b7160e01b600052603260045260246000fd5b602090810291909101015292915050565b610a1e846001600160a01b0316610add565b156106b75760405163f23a6e6160e01b81526001600160a01b0385169063f23a6e6190610a579089908990889088908890600401610f67565b602060405180830381600087803b158015610a7157600080fd5b505af1925050508015610aa1575060408051601f3d908101601f19168201909252610a9e91810190610e50565b60015b610aad5761094661140d565b6001600160e01b0319811663f23a6e6160e01b1461089c5760405162461bcd60e51b81526004016101a990611066565b3b151590565b80356001600160a01b038116811461021b57600080fd5b600082601f830112610b0a578081fd5b81356020610b1f610b1a83611349565b61131f565b8281528181019085830183850287018401881015610b3b578586fd5b855b85811015610b5957813584529284019290840190600101610b3d565b5090979650505050505050565b600082601f830112610b76578081fd5b813567ffffffffffffffff811115610b9057610b906113f1565b610ba3601f8201601f191660200161131f565b818152846020838601011115610bb7578283fd5b816020850160208301379081016020019190915292915050565b60008060408385031215610be3578182fd5b610bec83610ae3565b9150610bfa60208401610ae3565b90509250929050565b600080600080600060a08688031215610c1a578081fd5b610c2386610ae3565b9450610c3160208701610ae3565b9350604086013567ffffffffffffffff80821115610c4d578283fd5b610c5989838a01610afa565b94506060880135915080821115610c6e578283fd5b610c7a89838a01610afa565b93506080880135915080821115610c8f578283fd5b50610c9c88828901610b66565b9150509295509295909350565b600080600080600060a08688031215610cc0578081fd5b610cc986610ae3565b9450610cd760208701610ae3565b93506040860135925060608601359150608086013567ffffffffffffffff811115610d00578182fd5b610c9c88828901610b66565b60008060408385031215610d1e578182fd5b610d2783610ae3565b915060208301358015158114610d3b578182fd5b809150509250929050565b60008060408385031215610d58578182fd5b610d6183610ae3565b946020939093013593505050565b60008060408385031215610d81578182fd5b823567ffffffffffffffff80821115610d98578384fd5b818501915085601f830112610dab578384fd5b81356020610dbb610b1a83611349565b82815281810190858301838502870184018b1015610dd7578889fd5b8896505b84871015610e0057610dec81610ae3565b835260019690960195918301918301610ddb565b5096505086013592505080821115610e16578283fd5b50610e2385828601610afa565b9150509250929050565b600060208284031215610e3e578081fd5b8135610e49816114b2565b9392505050565b600060208284031215610e61578081fd5b8151610e49816114b2565b600060208284031215610e7d578081fd5b5035919050565b6000815180845260208085019450808401835b83811015610eb357815187529582019590820190600101610e97565b509495945050505050565b60008151808452815b81811015610ee357602081850181015186830182015201610ec7565b81811115610ef45782602083870101525b50601f01601f19169290920160200192915050565b60006001600160a01b03808816835280871660208401525060a06040830152610f3560a0830186610e84565b8281036060840152610f478186610e84565b90508281036080840152610f5b8185610ebe565b98975050505050505050565b60006001600160a01b03808816835280871660208401525084604083015283606083015260a06080830152610f9f60a0830184610ebe565b979650505050505050565b600060208252610e496020830184610e84565b600060408252610fd06040830185610e84565b8281036020840152610fe28185610e84565b95945050505050565b901515815260200190565b600060208252610e496020830184610ebe565b60208082526034908201527f455243313135353a207472616e7366657220746f206e6f6e204552433131353560408201527f526563656976657220696d706c656d656e746572000000000000000000000000606082015260800190565b60208082526028908201527f455243313135353a204552433131353552656365697665722072656a656374656040820152676420746f6b656e7360c01b606082015260800190565b6020808252602b908201527f455243313135353a2062616c616e636520717565727920666f7220746865207a60408201526a65726f206164647265737360a81b606082015260800190565b60208082526029908201527f455243313135353a2063616c6c6572206973206e6f74206f776e6572206e6f7260408201526808185c1c1c9bdd995960ba1b606082015260800190565b60208082526025908201527f455243313135353a207472616e7366657220746f20746865207a65726f206164604082015264647265737360d81b606082015260800190565b60208082526032908201527f455243313135353a207472616e736665722063616c6c6572206973206e6f742060408201527f6f776e6572206e6f7220617070726f7665640000000000000000000000000000606082015260800190565b6020808252602a908201527f455243313135353a20696e73756666696369656e742062616c616e636520666f60408201526939103a3930b739b332b960b11b606082015260800190565b60208082526029908201527f455243313135353a2073657474696e6720617070726f76616c20737461747573604082015268103337b91039b2b63360b91b606082015260800190565b60208082526029908201527f455243313135353a206163636f756e747320616e6420696473206c656e677468604082015268040dad2e6dac2e8c6d60bb1b606082015260800190565b60208082526028908201527f455243313135353a2069647320616e6420616d6f756e7473206c656e677468206040820152670dad2e6dac2e8c6d60c31b606082015260800190565b90815260200190565b918252602082015260400190565b60405181810167ffffffffffffffff81118282101715611341576113416113f1565b604052919050565b600067ffffffffffffffff821115611363576113636113f1565b5060209081020190565b60008219821115611380576113806113db565b500190565b60028104600182168061139957607f821691505b602082108114156113ba57634e487b7160e01b600052602260045260246000fd5b50919050565b60006000198214156113d4576113d46113db565b5060010190565b634e487b7160e01b600052601160045260246000fd5b634e487b7160e01b600052604160045260246000fd5b60e01c90565b600060443d101561141d576104eb565b600481823e6308c379a06114318251611407565b1461143b576104eb565b6040513d600319016004823e80513d67ffffffffffffffff816024840111818411171561146b57505050506104eb565b8284019250825191508082111561148557505050506104eb565b503d8301602082840101111561149d575050506104eb565b601f01601f1916810160200160405291505090565b6001600160e01b03198116811461044857600080fdfea26469706673582212201c55ef5b54032c5f3fb421939f605c5ad416f04623b2f05e222456a0022f8e0b64736f6c6343000800003368747470733a2f2f6578616d706c652e636f6d2f6170692f7b69647d2e6a736f6e",
  "immutableReferences": {},
  "source": "// SPDX-License-Identifier: MIT\r\npragma solidity ^0.8.0;\r\n\r\nimport \"@openzeppelin/contracts/token/ERC1155/ERC1155.sol\";\r\n\r\ncontract BookStore is ERC1155 {\r\n\r\n  constructor() ERC1155('https://example.com/api/{id}.json') {\r\n\r\n  }\r\n\r\n  function publish(uint256 _quantity) public {\r\n\r\n  }\r\n}\r\n",
  "sourcePath": "C:\\Users\\Hp\\Documents\\Projects\\bookstore\\contracts\\BookStore.sol",
  "compiler": {
    "name": "solc",
    "version": "0.8.0+commit.c7dfd78e.Emscripten.clang"
  },
  "schemaVersion": "3.4.3",
  "updatedAt": "2021-12-25T10:33:01.573Z",
  "devdoc": {
    "kind": "dev",
    "methods": {
      "balanceOf(address,uint256)": {
        "details": "See {IERC1155-balanceOf}. Requirements: - `account` cannot be the zero address."
      },
      "balanceOfBatch(address[],uint256[])": {
        "details": "See {IERC1155-balanceOfBatch}. Requirements: - `accounts` and `ids` must have the same length."
      },
      "isApprovedForAll(address,address)": {
        "details": "See {IERC1155-isApprovedForAll}."
      },
      "safeBatchTransferFrom(address,address,uint256[],uint256[],bytes)": {
        "details": "See {IERC1155-safeBatchTransferFrom}."
      },
      "safeTransferFrom(address,address,uint256,uint256,bytes)": {
        "details": "See {IERC1155-safeTransferFrom}."
      },
      "setApprovalForAll(address,bool)": {
        "details": "See {IERC1155-setApprovalForAll}."
      },
      "supportsInterface(bytes4)": {
        "details": "See {IERC165-supportsInterface}."
      },
      "uri(uint256)": {
        "details": "See {IERC1155MetadataURI-uri}. This implementation returns the same URI for *all* token types. It relies on the token type ID substitution mechanism https://eips.ethereum.org/EIPS/eip-1155#metadata[defined in the EIP]. Clients calling this function must replace the `\\{id\\}` substring with the actual token type ID."
      }
    },
    "version": 1
  },
  "userdoc": {
    "kind": "user",
    "methods": {},
    "version": 1
  }
}